:10000000020A8E8F993099FDC29922020A0D0203CD
:1000100056E86480F8E933E83360110460F0ED33AA
:10002000EC337009E8FCE9FDEAFEEBFF220460DE38
:10003000D3EB9FEA9EE99DE8C2E78CF0C2F795F00A
:10004000400CE8CCF8E9CDF9EACEFAEBCFFB12038D
:100050002185D0F05804700320D5B3E80470075010
:1000600002B2D502036092D5EC0460F7E4CCC0E0A4
:10007000C398F8603B94186008400DD0E0FB020381
:1000800038E4FBFAC9FC8028E830E406E4C9FBE464
:10009000CAFCE830E305E4C9CACBFCE854076010A9
:1000A000F8C3E913F9EA13FAEB13FBEC13FCD8F1EC
:1000B00030F52FC3E49CFCEF9BFFEE9AFEED99FD1B
:1000C000D0E0FBEF4E4D4C701222DB0302035DECDF
:1000D0002CFCEF33FFEE33FEED33FDED30E7EB02AA
:1000E0000338EF2BFFEE3AFEED39FDD0E0FB501365
:1000F0000BBB0003020360ED13FDEE13FEEF13FFD5
:10010000EC13FC020338EC4D6011E8497017ED3335
:10011000EC3304600DE4FCFFFEFD22E933E8330418
:1001200070F802035612032158046009E4CC2481BC
:10013000500628500902036028400302035DC0E016
:10014000EB4A7044B98006D0E0FB02034CEF4E70DE
:100150001CBD8008EBFFEAFEE9FD80EBE98DF0A411
:10016000FEE5F00201EFE9CDF9EAFEEBFFEF89F0E1
:10017000A4FCE5F0CE89F0A42EFFE435F0CD89F0A3
:10018000A42DFEE435F08067EF4E7005BD80D7806A
:10019000C3EF8BF0A4ACF0EE8BF0A42CFCE435F0B4
:1001A000F8EF8AF0A42CE5F038FCE433CB8DF0A412
:1001B0002CFCE5F03BF8EE8AF0A42CFCE5F038F8D6
:1001C000E433CF89F0A42CFCE5F038CF3400CE899D
:1001D000F0A42FFFE5F03EFEE433C98DF0A42EFE1F
:1001E000E5F039CD8AF0A42FFFE5F03EFEE43DFDB9
:1001F00033D0E0FB50070BBB000F020360EC2CFC7C
:10020000EF33FFEE33FEED33FD020338020360EC03
:100210005D046005E8590470030203561203215877
:100220000460F6EC4860F2EC7004FDFEFF22C8604A
:10023000DB2481C85009C3986002500602035D9810
:1002400050CAF582E9294B4A7005AB8202034C750E
:10025000F0007C1A7880C3EF9BEE9AED99400DC3B5
:10026000EF9BFFEE9AFEED99FDE842F0DC23ACF047
:10027000D0E0FFD0E0FED0E0FDAB8220E7101BEB2A
:1002800060BAEC2CFCEF33FFEE33FEED33FD0203DE
:1002900038E803F830E705C0F075F000EF2FFFEE07
:1002A00033FEED33FD40B830E7C280AA75F0208000
:1002B0000E75F010800575F0087D007E007F00331C
:1002C00092D530D5031204E6EC334010EF33FFEE45
:1002D00033FEED33FDEC33FCD5F0ED22E5F0247E6A
:1002E000A2D513CC92E7CDCEFF22EDD2E7CD33ECF1
:1002F0003392D524814006E4FFFEFDFC22FCE4CFCE
:10030000CECDCC24E0501174FF80EDC3CC13CCCD06
:1003100013CDCE13CECF13CF0470F030D5DE020450
:10032000E6E9D2E7C933E833F892D5EDD2E7CD3329
:10033000EC33FC5002B2D522EC30E7100FBF000CBA
:100340000EBE00080DBD00040BEB6014A2D5EB132C
:10035000FCED92E7FD2274FFFCFDFEFF22E480F835
:10036000A2D574FF13FC7D80E480EFE709F608DF77
:10037000FA8046E709F208DFFA803E88828C83E73C
:1003800009F0A3DFFA8032E309F608DFFA8078E3A8
:1003900009F208DFFA807088828C83E309F0A3DF1A
:1003A000FA806489828A83E0A3F608DFFA8058899C
:1003B000828A83E0A3F208DFFA804C80D280FA8040
:1003C000C680D4806980F28033801080A680EA8065
:1003D0009A80A880DA80E280CA803389828A83EC9E
:1003E000FAE493A3C8C582C8CCC583CCF0A3C8C522
:1003F00082C8CCC583CCDFE9DEE7800D89828A83A1
:10040000E493A3F608DFF9ECFAA9F0EDFB22898268
:100410008A83ECFAE0A3C8C582C8CCC583CCF0A31C
:10042000C8C582C8CCC583CCDFEADEE880DB898220
:100430008A83E493A3F208DFF980CC88F0EF6001AF
:100440000E4E60C388F0ED2402B4040050B9F5826A
:10045000EB2402B4040050AF23234582239003BB56
:1004600073BB010CE58229F582E5833AF583E0222E
:100470005006E92582F8E622BBFE06E92582F8E26D
:1004800022E58229F582E5833AF583E49322F8BBDD
:10049000010DE58229F582E5833AF583E8F02250E3
:1004A00006E92582C8F622BBFE05E92582C8F222AC
:1004B000C2D5EC30E709B2D5E4C39DFDE49CFCEE67
:1004C00030E715B2D5E4C39FFFE49EFE12051AC3C0
:1004D000E49DFDE49CFC800312051A30D507C3E4BB
:1004E0009FFFE49EFE22C3E49FFFE49EFEE49DFD89
:1004F000E49CFC22D083D082F8E4937012740193C0
:10050000700DA3A393F8740193F5828883E4737448
:1005100002936860EFA3A3A380DFBC000BBE002999
:10052000EF8DF084FFADF022E4CCF875F008EF2FEA
:10053000FFEE33FEEC33FCEE9DEC984005FCEE9DA7
:10054000FE0FD5F0E9E4CEFD22EDF8F5F0EE8420C3
:10055000D21CFEADF075F008EF2FFFED33FD400724
:10056000985006D5F0F222C398FD0FD5F0EA227F0D
:10057000FD120A7E120A697F007E007D007C401217
:10058000082B120AA3120A3F120A54120AACEF12E5
:1005900004F405C84105D04205DB430644460686FF
:1005A0004706B24B05B44C06D74F06DD50069A52AB
:1005B0000000058BE47FFFFE1208EFEF60057F4D22
:1005C0000206807F4E0206807B007A007908800652
:1005D0007B007A00790D12097580B0751201E4F57F
:1005E00013740D2513F8E6FF74082513F8E66F6001
:1005F00005E4F51280070513E513B405E4E5126080
:10060000387F44120003AD127FFF7E001209A27FE3
:100610000F7E001209CDE4F513AF137E0074082598
:1006200013F8E6FD1209A27F0A7E001209CD051318
:10063000E513C3940540E280057F451200037F0A5D
:100640007E0080687512017B007A007908120975B6
:10065000E4F513AF137E001208EF74082513F8E6D3
:100660006F6003E4F5127F0A7E001209CD0513E5E1
:1006700013C3940540DDE51260047F4980027F4A80
:1006800012000302058B120A697F007E007DC07C88
:100690004012082B7FF47E018012120A697F007ECF
:1006A000007D007C4012082B7FF47E011209CD02F0
:1006B000058B751305E513D39400500302058B12C7
:1006C0000A9A7FF47E011209CD120AA37FF47E01FB
:1006D0001209CD151380DE120A3F02058B120A544F
:1006E00002058BEDC394084003020787EFC394040F
:1006F0004003020787EF14602D14604A14606724DA
:10070000036003020787BB010EA80574010880027D
:10071000C333D8FC428022A8057401088002C33389
:10072000D8FCF4528022BB010EA805740108800297
:10073000C333D8FC429022A8057401088002C33359
:10074000D8FCF4529022BB010EA805740108800267
:10075000C333D8FC42A022A8057401088002C33329
:10076000D8FCF452A022BB010EA805740108800237
:10077000C333D8FC42B022AF05A807740108800239
:10078000C333D8FCF452B022E4FCEDC39408400318
:10079000020828EFC394044003020828EF146029DC
:1007A0001460451460612403707E7E007401A80506
:1007B000088005C333CE33CED8F9FFAB80EF5B6042
:1007C000047C018063E4FC805F7E007401A805085E
:1007D0008005C333CE33CED8F9FFAB90EF5B600416
:1007E0007C018044E4FC80407E007401A805088000
:1007F00005C333CE33CED8F9FFABA0EF5B60047CEA
:10080000018025E4FC8021AF057E007401A8070863
:100810008005C333CE33CED8F9FFADB0EDFBEF5B2F
:1008200060047C018002E4FCAF04228F178E168DD9
:10083000158C14751B00751A027519DD751846E4C0
:10084000FBFA79C87842AF1BAE1AAD19AC18120288
:100850000FAB17AA16A915A8141201061202EA8EE8
:10086000208F21AC20AD21E41202B1A804A905AA71
:1008700006AB07AF1BAE1AAD19AC1812001112026D
:10088000EA8E1E8F1FC374FF9521F52174FF9520FA
:10089000F520C374FF951FF51F74FF951EF51E22EA
:1008A0008F17E4F518E5175480C41313135401FB94
:1008B000E4FDFF1206E37B017D01E4FF1206E3E4A1
:1008C000FB7D01FF1206E3E51725E0F5170518E5A6
:1008D00018C3940840CFE4FDFF120788EF70F77B40
:1008E000017D01FF1206E3E4FB7D01FF0206E38EBA
:1008F000148F151209EDE5145407FEE47807CEC3F2
:1009000013CE13D8F944A0FF1208A0AF151208A007
:100910001209EDE5145407FEE47807CEC313CE1395
:10092000D8F944A1FF1208A01209338F16120A2722
:10093000AF1622E4F518F5177B017D01E4FF1206DE
:10094000E3E51825E0F518E4FDFF120788EF4218EB
:10095000E4FB7D01FF1206E30517E517C394084089
:10096000D77B017D01E4FF1206E3E4FB7D01FF126A
:1009700006E3AF18228B148A158916E4F517120ABC
:10098000ACAB14AA15A916851782758300EF120463
:100990008E7F0F7E001209CD0517E517C394054021
:1009A000DD228E148F158D161209EDE5145407FE05
:1009B000E47807CEC313CE13D8F944A0FF1208A0E1
:1009C000AF151208A0AF161208A0020A27E4FDFC1A
:1009D000C3ED9FEC9E5015E4FBFA0BBB00010AEB44
:1009E00064A34A70F50DBD00010C80E4227B01E494
:1009F000FDFF1206E37B017D01E4FF1206E3E4FB49
:100A0000FDFF1206E3E4FB7D01FF0206E3C0E0B256
:100A1000A730A709E520F58C85218A8007E51EF51A
:100A20008C851F8AD0E032E4FBFDFF1206E37B01D8
:100A30007D01E4FF1206E37B01E4FDFF0206E37D96
:100A4000057F02120788EF7B0070027B017D057F26
:100A5000020206E37D037F02120788EF7B0070022B
:100A60007B017D037F020206E3E58954F04401F532
:100A700089758C91758A7ED28CD2AFD2A922E589F4
:100A8000540F4420F5897598508F8DD28E22787F2F
:100A9000E4F6D8FD75812102056F7B017D017F029F
:100AA0000206E3E4FB7D017F020206E33098FDC20B
:040AB00098AF992240
:00000001FF
