:100000000205B68F993099FDC29922020854E4F591
:1000100008F509750A01750B017580FF7590FF756C
:10002000A0FF75B0FF12086E7FFD1208967BFF7A65
:100030000879BC1207F1E4FD7F0112079A7BFF7A71
:100040000879CD1207F17FD07E071208147F4C1279
:1000500000031208A8BF4D05750C018003E4F50CE0
:10006000E50C7003020291E4F5081208B7E516707A
:100070001FE50A7BFFB401067A0879DC80047A0860
:1000800079EAE4FDFF1208847BFF7A0879F980178A
:10009000E516B401197BFF7A097909E4FDFF12081E
:1000A000847BFF7A09791AE4FD7F011208847FF4CA
:1000B0007E0112081412031EEE70A5EF24BE700319
:1000C0000201B614700302028B24027093E51660DD
:1000D0000302019CE4F5091208B77BFF7A09792B2A
:1000E0001207F1E4FD7F0112079A7BFF7A09793B41
:1000F0001207F17F461200031206421207677F0FB4
:100100007E001208141208A8EF64497042750901B4
:10011000E50A70137F52120003750A011208B77BBB
:10012000FF7A0979418016E50AB401177F4712006A
:1001300003E4F50A1208B77BFF7A09794CE4FDFF66
:100140001208847FE87E031208141208B78033E493
:10015000F50905081208B77BFF7A0979591207F1EA
:10016000E4FD7F0112079A7BFF7A0979691207F192
:10017000C3740395084430FF1207277FD07E07120F
:100180000814E508C394035007E50970030200D47E
:10019000E5086403600302006002024DE516640195
:1001A00060030200607F4F1200031208B77BFF7AE2
:1001B000097978020271E516600302025AE4F50932
:1001C0001208B77BFF7A09792B1207F1E4FD7F0152
:1001D00012079A7BFF7A09793B1207F1750B017FB1
:1001E000F47E011208147F46120003120642120721
:1001F000677F0F7E001208141208A8BF4908E4F5B3
:100200000C750901803005081208B77BFF7A09795F
:10021000591207F1E4FD7F0112079A7BFF7A0979F1
:10022000691207F1C3740395084430FF1207277F52
:10023000D07E07120814E508C394035007E509703F
:10024000030201BDE50864036003020060F5087F56
:100250004B1200031207C7020060E5166401600339
:100260000200607F501200031208B77BFF7A097901
:10027000971207F17BFF7A097989E4FD7F01120863
:10028000847FE87E031208140200606316010200F6
:10029000601208B77BFF7A0979A81207F1E4FD7FA5
:1002A0000112079A7BFF7A09793B1207F1750B015E
:1002B0007F411200031206421207671208B77BFF44
:1002C0007A0979B81207F1E4FD7F0112079A7BFFE2
:1002D0007A09793B1207F17F0F7E001208147F42E2
:1002E0001200031206421207677F0F7E00120814E5
:1002F0007F431200031208A88F0BE50BB444097565
:100300000C01E4F50B0200601208B77BFF7A097953
:10031000C71207F17FE87E031208140200607B0118
:100320007D047F0112046E7B017D057F0112046E46
:100330007B017D067F0112046E7B017D077F011228
:10034000046EE4FBFD7F0112046E7B017D017F01E1
:1003500012046E7B017D027F0112046E7B017D031E
:100360007F0112046E7D047F01120513EF70037F7D
:1003700031227D057F01120513EF70037F32227D4C
:10038000067F01120513EF70037F33227D077F0183
:10039000120513EF70037F41227B01E4FD7F011200
:1003A000046EE4FB7D017F0112046E7D047F011267
:1003B0000513EF70037F34227D057F01120513EFD3
:1003C00070037F35227D067F01120513EF70037FD6
:1003D00036227D077F01120513EF70037F42227BD7
:1003E000017D017F0112046EE4FB7D027F01120496
:1003F0006E7D047F01120513EF70037F37227D05A8
:100400007F01120513EF70037F38227D067F0112F2
:100410000513EF70037F39227D077F01120513EF6B
:1004200070037F43227B017D027F0112046EE4FB97
:100430007D037F0112046E7D047F01120513EF70AE
:10044000037F2A227D057F01120513EF70037F30A1
:10045000227D067F01120513EF70037F23227D07A3
:100460007F01120513EF600302031E7F4422EDC3D8
:1004700094084003020512EFC394044003020512DE
:10048000EF14602D14604A146067240360030205B2
:1004900012BB010EA8057401088002C333D8FC42C8
:1004A0008022A8057401088002C333D8FCF452806E
:1004B00022BB010EA8057401088002C333D8FC4298
:1004C0009022A8057401088002C333D8FCF452902E
:1004D00022BB010EA8057401088002C333D8FC4278
:1004E000A022A8057401088002C333D8FCF452A0EE
:1004F00022BB010EA8057401088002C333D8FC4258
:10050000B022AF05A8077401088002C333D8FCF4F9
:1005100052B022E4FCEDC3940840030205B3EFC3DC
:10052000940440030205B3EF14602914604514607D
:10053000612403707E7E007401A805088005C33322
:10054000CE33CED8F9FFAB80EF5B60047C018063D3
:10055000E4FC805F7E007401A805088005C333CEEB
:1005600033CED8F9FFAB90EF5B60047C018044E4AC
:10057000FC80407E007401A805088005C333CE339B
:10058000CED8F9FFABA0EF5B60047C018025E4FCD2
:100590008021AF057E007401A807088005C333CE13
:1005A00033CED8F9FFADB0EDFBEF5B60047C01808A
:1005B00002E4FCAF0422787FE4F6D8FD75812202C4
:1005C00005FD02000EE493A3F8E493A34003F68034
:1005D00001F208DFF48029E493A3F85407240CC83F
:1005E000C333C4540F4420C8834004F456800146EA
:1005F000F6DFE4800B01020408102040809008B070
:10060000E47E019360BCA3FF543F30E509541FFE14
:10061000E493A360010ECF54C025E060A840B8E485
:1006200093A3FAE493A3F8E493A3C8C582C8CAC508
:1006300083CAF0A3C8C582C8CAC583CADFE9DEE79A
:1006400080BEE4F51512031E74172515F8A607746D
:10065000172515F8E6FFC394304021EFD3943950A5
:100660001B1207277FF47E01120814E5152405FDEF
:100670007F0112079A7F2A120727800215157F0F24
:100680007E001208140515E515C3940540B7120342
:100690001EEF64234E70F722BB010CE58229F58220
:1006A000E5833AF583E0225006E92582F8E622BB8D
:1006B000FE06E92582F8E222E58229F582E5833A01
:1006C000F583E49322F8BB010DE58229F582E583E9
:1006D0003AF583E8F0225006E92582C8F622BBFEEF
:1006E00005E92582C8F2228F11E4FB7D027F031207
:1006F000046E7F017E001208147B017D037F0312CC
:10070000046E7F017E00120814AD117F02120834BE
:100710007F017E00120814E4FB7D037F0312046E48
:100720007F017E000208148F147B017D027F03127B
:10073000046E7F017E001208147B017D037F03128B
:10074000046E7F017E00120814AD147F021208347B
:100750007F017E00120814E4FB7D037F0312046E08
:100760007F017E000208147B007A0079178B0D8AC6
:100770000E890FE4F51CAB0DAA0EA90F851C82751E
:100780008300120698FF1200037F0F7E00120814E8
:10079000051CE51CC3940540DD22EF14600E1460B7
:1007A00012146016240370178D108013ED2440F589
:1007B00010800CED2410F5108005ED2450F510E5A7
:1007C000104480FF0206E71208B77515057BFF7A13
:1007D0000979D71207F17FF47E011208141208B7C5
:1007E0007FF47E011208141515E515D3940050DD31
:1007F000228B108A118912E4F513AB10AA11A912E9
:10080000851382758300120698FF6007120727057B
:100810001380E722E4FDFCC3ED9FEC9E5015E4FB42
:10082000FA0BBB00010AEB647B4A70F50DBD0001B9
:100830000C80E422EFC394045019EF14600D14608F
:100840000D14600D2403700B8D80228D90228DA0DD
:10085000228DB022C0E0B2A030A009E521F58C8540
:10086000228A8007E51FF58C85208AD0E0327F142C
:100870007E001208147F381206E77F0C1206E77F0D
:10088000010206E78B0D8A0E890F12079AAB0DAA9B
:100890000EA90F0207F1E589540F4420F5898F8DC9
:1008A000759850D28ED299223098FDC298AF992275
:1008B000011500011600007F010206E720202053E9
:1008C0004D41525420484F4D4520202000202020EB
:1008D000202053595354454D2020200041203A20D8
:1008E0004F70656E20446F6F720041203A20436C58
:1008F0006F736520446F6F720042203A2043686135
:100900006E67652050617373004120546F67676C98
:10091000652052656C61792031004220546F676711
:100920006C652052656C6179203200456E74657289
:100930002050617373776F72643A0020202020206A
:10094000004C6F636B696E672E2E2E00556E6C6FB8
:10095000636B696E672E2E2E0057726F6E67205084
:10096000617373776F7264210054726965732052EA
:10097000656D61696E3A2000202020202052656C50
:10098000617920312020202000202020697320540C
:100990006F67676C656400202020202052656C61C1
:1009A0007920322020202000456E746572204E652B
:1009B0007720506173733A0052652D456E746572ED
:1009C00020506173733A00202020556E6D6174636E
:1009D00068656421202000202020205741524E4984
:0809E0004E47212020202000D9
:00000001FF
